:020000040000FA
:10000000600400206D020000710200007302000015
:100010007502000077020000790200000000000075
:100020000000000000000000000000007B02000053
:100030007D020000000000007F020000810200003D
:10004000830200008302000083020000830200009C
:10005000830200008302000083020000830200008C
:10006000830200008302000083020000830200007C
:10007000830200008302000083020000830200006C
:10008000830200008302000083020000830200005C
:10009000830200008302000083020000830200004C
:1000A000830200008302000083020000830200003C
:1000B0008302000083020000DD03000083020000D1
:1000C000830200008302000083020000830200001C
:1000D000830200008302000083020000830200000C
:1000E00083020000830200008302000083020000FC
:1000F00083020000830200008302000083020000EC
:1001000083020000830200008302000083020000DB
:1001100083020000830200008302000083020000CB
:1001200083020000830200008302000083020000BB
:1001300083020000830200008302000083020000AB
:1001400000000000000000000000000000000000AF
:10015000830200008302000083020000830200008B
:10016000000000000000000000000000000000008F
:10017000000000000000000000000000000000007F
:10018000000000000000000000000000000000006F
:10019000000000000000000000000000000000005F
:1001A000000000000000000000000000000000004F
:1001B000830200008302000083020000830200002B
:1001C000830200008302000083020000830200001B
:1001D000830200008302000083020000830200000B
:1001E00083020000830200008302000083020000FB
:1001F00083020000830200008302000083020000EB
:10020000830200008302000083020000000000005F
:1002100083020000830200008302000083020000CA
:1002200083020000830200008302000083020000BA
:1002300083020000830200008302000083020000AA
:10024000830200008302000083020000830200009A
:10025000830200008302000083020000830200008A
:1002600083020000830200008302000000F00AB84D
:10027000FEE7FEE7FEE7FEE7FEE7FEE7FEE7FEE756
:10028000FEE7FEE700F002F800F042F814A696E858
:10029000000CB244B344DA4501D100F039F8BAE8B1
:1002A0000F000FA696E83000A5EB040504EB060747
:1002B000AAEB0704A7F101074FEA15154FEA34141A
:1002C000A4F10104AC4201D300F022F813F0010FB5
:1002D00018BFFB1A43F0010300F001F8DBE71847F1
:1002E000A4070000B40700007047000000230024AA
:1002F00000250026103A28BF78C1FBD8520728BF36
:1003000030C148BF0B6070471FB51FBD10B510BD91
:1003100000F029F81146FFF7F7FF00F08BFB00F023
:1003200047F803B4FFF7F2FF03BC00F04FF80000FA
:1003300072B6704762B67047EFF3108072B67047BE
:1003400080F31088704730BF704702480249014A65
:10035000024B704760000020600400206000002015
:10036000704770477047754600F02CF8AE460500A0
:100370006946534620F00700854618B020B5FFF7C0
:10038000E4FFBDE820404FF000064FF000074FF0BB
:1003900000084FF0000BAC46ACE8C009ACE8C0095F
:1003A000ACE8C009ACE8C00921F007018D467047F0
:1003B00010B50446AFF300802046BDE81040FFF7BB
:1003C000B0BF00000048704700000020014918201D
:1003D000ABBEFEE7260002007047000080B588B083
:1003E00047F25800C0F202000790FFE7079820B1DB
:1003F000FFE7079801380790F8E745F21440C4F288
:1004000002000068C006002840F1BF80FFE745F207
:100410001C41C4F202011020086045F23031C4F2E0
:1004200000010491CC200590086041F288300290D0
:1004300000F0F0F8029800F0FBF80320039000F0C1
:10044000B7FA0120069000F0E5F8069800F0F0F801
:10045000069800F0ADFA0298049A88210091116084
:1004600000F0D8F8029800F0E3F8039800F0A0FA42
:10047000069800F0CFF8069800F0DAF8069800F039
:1004800097FA0298049A0599116000F0C3F840F6B3
:10049000B830019000F0CCF8039800F089FA069883
:1004A00000F0B8F8069800F0C3F8069800F080FA5B
:1004B000019800F0AFF8029800F0BAF8039800F045
:1004C00077FA069800F0A6F8069800F0B1F80698BA
:1004D00000F06EFA00990198049A116000F09AF801
:1004E000029800F0A5F8039800F062FA069800F070
:1004F00091F8069800F09CF8069800F059FA0298D6
:1005000000F088F8019800F093F8039800F050FA92
:10051000069800F07FF8069800F08AF8069800F038
:1005200047FA0298049AC821116000F073F8029803
:1005300000F07EF8039800F03BFA069800F06AF8A5
:10054000069800F075F8069800F032FA0298049ABE
:100550008C21116000F05EF8029800F069F80398B1
:1005600000F026FA069800F055F8069800F060F8BA
:10057000069800F01DFA049A05990698116000F09B
:1005800049F8069800F054F8FFE708B080BD000075
:1005900081B04EF27001C4F20F010091086840F082
:1005A00000400860086840F4006008604EF2600295
:1005B000C4F20F02106820F4F8601060106800F5B3
:1005C000A8601060086820F0700008600868086083
:1005D000086820F400500860086840F08040086017
:1005E0000868072262F39C500860FFE74EF2500053
:1005F000C4F20F0000684006002801D4FFE7F5E7C9
:100600004EF27001C4F20F01086820F40060086027
:1006100001B0704781B0ADF80200BDF802000138AA
:1006200048F29801C4F20201086001B0704700006E
:1006300081B0ADF80200BDF80200013848F29C011B
:10064000C4F20201086001B07047000081B0ADF84B
:1006500002004EF24061C4F20F01086840F0010050
:1006600008604EF20861C4F20F01086840F0020011
:100670000860FFE74EF20860C4F20F0000688007D0
:10068000002801D4FFE7F5E745F22041C4F200015C
:10069000086840F01000086045F22C51C4F20001D7
:1006A000086820F470200860086840F48020086022
:1006B00045F22851C4F20001086820F010000860DB
:1006C00045F21C51C4F20001086840F010000860B7
:1006D00045F20851C4F20001086840F0300008609B
:1006E0004EF26001C4F20F010868082262F3544020
:1006F000086048F28001C4F202010020086048F25C
:10070000A003C4F20203C8221A60BDF80220013A15
:1007100048F29003C4F202031A6048F29802C4F24D
:1007200002021060086840F00100086048F2080109
:10073000C4F20201086840F00400086001B070478C
:1007400082B0ADF806004EF24061C4F20F010868B5
:1007500040F0010008604EF20860C4F20F0001682A
:1007600041F0020101600068009045F22041C4F2AE
:100770000001086840F02000086045F22C51C4F2E6
:100780000001086820F470000860086840F48000E8
:10079000086045F22851C4F20001086820F02000EA
:1007A000086045F21C51C4F20001086840F02000C6
:1007B00008604EF26001C4F20F01086840F4801036
:1007C0000860086820F4602008600868086048F243
:1007D0008001C4F202010020086048F2A403C4F2C0
:1007E000020340F608421A60BDF80620013A48F2BA
:1007F0009003C4F202031A6048F29C02C4F202029F
:100800001060086840F00100086048F20801C4F276
:100810000201086840F00800086002B0704700005C
:100820004EF20811C4F20F01086840F0020008609F
:10083000FFE74EF20810C4F20F00006800F002005B
:10084000022801D0FFE7F4E745F22851C4F2000185
:10085000086820F0CC00086045F22C51C4F2000179
:1008600008683FFA80F0086045F20041C4F20001D8
:10087000086840F0CC00086045F22041C4F2000155
:10088000086820F0CC00086045F21C51C4F2000159
:10089000086840F0CC0008607047000081B04EF25C
:1008A0000810C4F20F00016841F0200101600068E7
:1008B000009045F22051C4F2020144F24B30C4F6DC
:1008C0004F40086045F22451C4F20201086840F02C
:1008D0001F00086045F20041C4F20201086820F0E0
:1008E00011000860086840F00E00086045F22041E1
:1008F000C4F20201086820F01100086045F21C51A2
:10090000C4F20201086840F01F00086045F22C5153
:10091000C4F2020108686FF31300086045F2285121
:10092000C4F20201086820F01F00086045F210516F
:10093000C4F20201086840F01100086045F2044169
:10094000C4F20201086820F01100086045F2084175
:10095000C4F20201086820F01100086045F20C4161
:10096000C4F20201086840F01100086045F21C4121
:10097000C4F202011120086045F21041C4F20201E4
:10098000086840F0110008604EF21C41CEF20001F0
:100990000868022262F3575008604EF20011CEF24E
:1009A0000001086840F08040086001B07047000016
:1009B00082B08DF807009DF8070080008DF80700D1
:1009C00000200090FFE700989DF8071088422EDA7B
:1009D000FFE74EF21001CEF20001002008604EF257
:1009E0001403CEF2000340F6FF02C0F23D021A608B
:1009F0004EF21802CEF200021060086840F00500C6
:100A00000860FFE74EF21000CEF200000068C0035D
:100A1000002801D4FFE7F5E74EF21001CEF2000105
:100A200000200860FFE7009801300090CBE702B09B
:100A30007047000080B584B000200390FFF778FC79
:100A4000FFF7A6FDFFF7ECFE42F210700190FFF7F2
:100A5000FDFD0198FFF774FEFFF720FFFFF76AFC2A
:100A600045F23031C4F20001CC2008600120029030
:100A7000FFF7D0FD0298FFF7DBFDFFE7FFF763FC10
:100A8000FCE70000940A0000000000206004000061
:040A9000EC02000074
:040000050000026D88
:00000001FF
