:020000040000FA
:10000000600400206D020000710200007302000015
:100010007502000077020000790200000000000075
:100020000000000000000000000000007B02000053
:100030007D020000000000007F020000810200003D
:10004000830200008302000083020000830200009C
:10005000830200008302000083020000830200008C
:10006000830200008302000083020000830200007C
:10007000830200008302000083020000830200006C
:10008000830200008302000083020000830200005C
:10009000830200008302000083020000830200004C
:1000A000830200008302000083020000830200003C
:1000B00083020000830200001D0400008302000090
:1000C000830200008302000083020000830200001C
:1000D000830200008302000083020000830200000C
:1000E00083020000830200008302000083020000FC
:1000F00083020000830200008302000083020000EC
:1001000083020000830200008302000083020000DB
:1001100083020000830200008302000083020000CB
:1001200083020000830200008302000083020000BB
:1001300083020000830200008302000083020000AB
:1001400000000000000000000000000000000000AF
:10015000830200008302000083020000830200008B
:10016000000000000000000000000000000000008F
:10017000000000000000000000000000000000007F
:10018000000000000000000000000000000000006F
:10019000000000000000000000000000000000005F
:1001A000000000000000000000000000000000004F
:1001B000830200008302000083020000830200002B
:1001C000830200008302000083020000830200001B
:1001D000830200008302000083020000830200000B
:1001E00083020000830200008302000083020000FB
:1001F00083020000830200008302000083020000EB
:10020000830200008302000083020000000000005F
:1002100083020000830200008302000083020000CA
:1002200083020000830200008302000083020000BA
:1002300083020000830200008302000083020000AA
:10024000830200008302000083020000830200009A
:10025000830200008302000083020000830200008A
:1002600083020000830200008302000000F00AB84D
:10027000FEE7FEE7FEE7FEE7FEE7FEE7FEE7FEE756
:10028000FEE7FEE700F002F800F042F814A696E858
:10029000000CB244B344DA4501D100F039F8BAE8B1
:1002A0000F000FA696E83000A5EB040504EB060747
:1002B000AAEB0704A7F101074FEA15154FEA34141A
:1002C000A4F10104AC4201D300F022F813F0010FB5
:1002D00018BFFB1A43F0010300F001F8DBE71847F1
:1002E000D4060000E406000070470000002300244C
:1002F00000250026103A28BF78C1FBD8520728BF36
:1003000030C148BF0B6070471FB51FBD10B510BD91
:1003100000F029F81146FFF7F7FF00F017FB00F097
:1003200047F803B4FFF7F2FF03BC00F04FF80000FA
:1003300072B6704762B67047EFF3108072B67047BE
:1003400080F31088704730BF704702480249014A65
:10035000024B704760000020600400206000002015
:10036000704770477047754600F02CF8AE460500A0
:100370006946534620F00700854618B020B5FFF7C0
:10038000E4FFBDE820404FF000064FF000074FF0BB
:1003900000084FF0000BAC46ACE8C009ACE8C0095F
:1003A000ACE8C009ACE8C00921F007018D467047F0
:1003B00010B50446AFF300802046BDE81040FFF7BB
:1003C000B0BF00000048704700000020014918201D
:1003D000ABBEFEE7260002007047000081B043F28A
:1003E000BC10C0F20C000090FFE7009820B1FFE7BE
:1003F000009801380090F8E700200090FFE700988F
:1004000044F23F21C0F20F01884205D8FFE7FFE721
:10041000009801300090F2E701B0704780B586B0D7
:1004200047F25800C0F202000590FFE7059820B19E
:10043000FFE7059801380590F8E745F21440C4F24B
:1004400002000068C00600285CD5FFE745F21C41A9
:10045000C4F202011020086045F23031C4F20001FC
:100460000391086840F0CC00086041F288300290A7
:1004700000F08CF8029800F097F8FFF7AFFF0399AF
:10048000086840F088000860FFF7A8FF40F6B83021
:10049000019000F089F8FFF7A1FF019800F076F8CD
:1004A000029800F081F8FFF799FF0399086840F07F
:1004B00088000860FFF792FF029800F067F8019843
:1004C00000F072F8FFF78AFF0298039A116841F072
:1004D000C801116000F068F8FFF780FF0399086811
:1004E00040F08C000860FFF779FF0399086840F03E
:1004F000CC0008600120049000F048F8049800F057
:1005000053F8FFE706B080BD81B04EF27001C4F22F
:100510000F010091086840F000400860086840F44E
:10052000006008604EF26002C4F20F02106820F40E
:10053000F8601060106800F5A8601060086820F08E
:100540007000086008680860086820F400500860BF
:10055000086840F0804008600868072262F39C50F9
:100560000860FFE74EF25000C4F20F00006840063A
:10057000002801D4FFE7F5E74EF27001C4F20F0145
:10058000086820F40060086001B0704781B0ADF8E1
:100590000200BDF80200013848F29801C4F20201DD
:1005A000086001B07047000081B0ADF80200BDF8EE
:1005B0000200013848F29C01C4F20201086001B057
:1005C0007047000081B0ADF802004EF24061C4F205
:1005D0000F01086840F0010008604EF20861C4F2A3
:1005E0000F01086840F002000860FFE74EF2086063
:1005F000C4F20F0000688007002801D4FFE7F5E788
:1006000045F22041C4F20001086840F01000086083
:1006100045F22C51C4F20001086820F470200860F3
:10062000086840F48020086045F22851C4F20001B7
:10063000086820F01000086045F21C51C4F2000167
:10064000086840F01000086045F20851C4F200014B
:10065000086840F0300008604EF26001C4F20F01FB
:100660000868082262F35440086048F28001C4F22E
:1006700002010020086048F2A003C4F20203C8226D
:100680001A60BDF80220013A48F29003C4F2020356
:100690001A6048F29802C4F202021060086840F042
:1006A0000100086048F20801C4F20201086840F045
:1006B0000200086001B0704782B0ADF806004EF24B
:1006C0000810C4F20F0000688007002814D4FFE768
:1006D0004EF20811C4F20F01086840F002000860F1
:1006E000FFE74EF20810C4F20F00006880070028F0
:1006F00001D4FFE7F5E7FFE74EF24061C4F20F01D6
:10070000086840F00100086045F22041C4F2000191
:10071000086840F02000086045F22C51C4F2000146
:10072000086820F470000860086840F480000860E1
:1007300045F22851C4F20001086820F0200008604A
:1007400045F21C51C4F20001086840F02000086026
:100750004EF26001C4F20F01086840F48010086096
:10076000086820F4602008600868086048F280018A
:10077000C4F202010020086048F2A403C4F202039C
:1007800040F608421A60BDF80620013A48F290038C
:10079000C4F202031A6048F29C02C4F20202106022
:1007A000086840F00100086048F20801C4F2020144
:1007B000086840F00200086002B070474EF208116D
:1007C000C4F20F01086840F002000860FFE74EF233
:1007D0000810C4F20F00006800F00200022801D0E7
:1007E000FFE7F4E745F22851C4F20001086820F061
:1007F000CC00086045F22C51C4F2000108683FFAB1
:1008000080F0086045F20041C4F20001086840F041
:10081000CC00086045F22041C4F20001086820F0D5
:10082000CC00086045F21C51C4F20001086840F099
:10083000CC0008607047000081B04EF20810C4F28E
:100840000F00016841F0200101600068009045F24E
:100850002051C4F2020144F24B30C4F64F4008600C
:1008600045F22451C4F20201086840F01F000860FC
:1008700045F20041C4F20201086820F0110008604E
:10088000086840F00E00086045F22041C4F2020101
:10089000086820F01100086045F21C51C4F2020102
:1008A000086840F01F00086045F22C51C4F20201B4
:1008B00008686FF31300086045F22851C4F2020182
:1008C000086820F01F00086045F21051C4F20201D0
:1008D000086840F01100086045F20441C4F20201CA
:1008E000086820F01100086045F20841C4F20201D6
:1008F000086820F01100086045F20C41C4F20201C2
:10090000086840F01100086045F21C41C4F2020181
:100910001120086045F21041C4F20201086840F05D
:10092000110008604EF21C41CEF20001086802225C
:1009300062F3575008604EF20011CEF200010868D1
:1009400040F08040086001B07047000080B584B07E
:1009500000200390FFF7ECFCFFF7D6FDFFF72EFF1A
:1009600042F210700090FFF72DFE0098FFF7A4FEF2
:10097000FFF762FFFFF7DEFC45F23031C4F2000101
:10098000086840F0CC00086040F6AC500190FFF7DA
:10099000FDFD0198FFF708FEFFF720FD0120029002
:1009A000FFF7F4FD0298FFF7FFFDFFE7FFF7CBFC31
:1009B000FCE70000C4090000000000206004000003
:0409C000EC02000045
:040000050000026D88
:00000001FF
